{
  "contractName": "Certification",
  "abi": [
    {
      "inputs": [],
      "stateMutability": "nonpayable",
      "type": "constructor"
    },
    {
      "anonymous": false,
      "inputs": [
        {
          "indexed": true,
          "internalType": "string",
          "name": "certificateId",
          "type": "string"
        },
        {
          "indexed": false,
          "internalType": "string",
          "name": "uid",
          "type": "string"
        },
        {
          "indexed": false,
          "internalType": "string",
          "name": "candidateName",
          "type": "string"
        },
        {
          "indexed": false,
          "internalType": "string",
          "name": "ipfsHash",
          "type": "string"
        },
        {
          "indexed": false,
          "internalType": "uint256",
          "name": "timestamp",
          "type": "uint256"
        }
      ],
      "name": "CertificateGenerated",
      "type": "event"
    },
    {
      "anonymous": false,
      "inputs": [
        {
          "indexed": true,
          "internalType": "string",
          "name": "certificateId",
          "type": "string"
        }
      ],
      "name": "CertificateRevoked",
      "type": "event"
    },
    {
      "inputs": [
        {
          "internalType": "string",
          "name": "",
          "type": "string"
        }
      ],
      "name": "certificates",
      "outputs": [
        {
          "internalType": "string",
          "name": "uid",
          "type": "string"
        },
        {
          "internalType": "string",
          "name": "candidateName",
          "type": "string"
        },
        {
          "internalType": "string",
          "name": "courseName",
          "type": "string"
        },
        {
          "internalType": "string",
          "name": "orgName",
          "type": "string"
        },
        {
          "internalType": "string",
          "name": "ipfsHash",
          "type": "string"
        },
        {
          "internalType": "uint256",
          "name": "timestamp",
          "type": "uint256"
        },
        {
          "internalType": "bool",
          "name": "revoked",
          "type": "bool"
        }
      ],
      "stateMutability": "view",
      "type": "function",
      "constant": true
    },
    {
      "inputs": [],
      "name": "owner",
      "outputs": [
        {
          "internalType": "address",
          "name": "",
          "type": "address"
        }
      ],
      "stateMutability": "view",
      "type": "function",
      "constant": true
    },
    {
      "inputs": [
        {
          "internalType": "string",
          "name": "certificateId",
          "type": "string"
        },
        {
          "internalType": "string",
          "name": "uid",
          "type": "string"
        },
        {
          "internalType": "string",
          "name": "candidateName",
          "type": "string"
        },
        {
          "internalType": "string",
          "name": "courseName",
          "type": "string"
        },
        {
          "internalType": "string",
          "name": "orgName",
          "type": "string"
        },
        {
          "internalType": "string",
          "name": "ipfsHash",
          "type": "string"
        }
      ],
      "name": "generateCertificate",
      "outputs": [],
      "stateMutability": "nonpayable",
      "type": "function"
    },
    {
      "inputs": [
        {
          "internalType": "string",
          "name": "certificateId",
          "type": "string"
        }
      ],
      "name": "getCertificate",
      "outputs": [
        {
          "internalType": "string",
          "name": "uid",
          "type": "string"
        },
        {
          "internalType": "string",
          "name": "candidateName",
          "type": "string"
        },
        {
          "internalType": "string",
          "name": "courseName",
          "type": "string"
        },
        {
          "internalType": "string",
          "name": "orgName",
          "type": "string"
        },
        {
          "internalType": "string",
          "name": "ipfsHash",
          "type": "string"
        },
        {
          "internalType": "uint256",
          "name": "timestamp",
          "type": "uint256"
        },
        {
          "internalType": "bool",
          "name": "revoked",
          "type": "bool"
        }
      ],
      "stateMutability": "view",
      "type": "function",
      "constant": true
    },
    {
      "inputs": [
        {
          "internalType": "string",
          "name": "certificateId",
          "type": "string"
        }
      ],
      "name": "isVerified",
      "outputs": [
        {
          "internalType": "bool",
          "name": "",
          "type": "bool"
        }
      ],
      "stateMutability": "view",
      "type": "function",
      "constant": true
    },
    {
      "inputs": [
        {
          "internalType": "string",
          "name": "certificateId",
          "type": "string"
        }
      ],
      "name": "revokeCertificate",
      "outputs": [],
      "stateMutability": "nonpayable",
      "type": "function"
    },
    {
      "inputs": [
        {
          "internalType": "string",
          "name": "certificateId",
          "type": "string"
        },
        {
          "internalType": "string",
          "name": "uid",
          "type": "string"
        },
        {
          "internalType": "string",
          "name": "candidateName",
          "type": "string"
        },
        {
          "internalType": "string",
          "name": "courseName",
          "type": "string"
        },
        {
          "internalType": "string",
          "name": "orgName",
          "type": "string"
        },
        {
          "internalType": "string",
          "name": "ipfsHash",
          "type": "string"
        }
      ],
      "name": "storeCertificate",
      "outputs": [],
      "stateMutability": "nonpayable",
      "type": "function"
    }
  ],
  "bytecode": "0x608060405234801561001057600080fd5b50600180546001600160a01b03191633179055611642806100326000396000f3fe608060405234801561001057600080fd5b506004361061007d5760003560e01c8063627956ae1161005b578063627956ae146100bf5780638da5cb5b146100d25780638f2b91ea146100fd578063ed0f2e751461012357600080fd5b8063142e154214610082578063234c76d51461009757806359031909146100bf575b600080fd5b610095610090366004611360565b610136565b005b6100aa6100a5366004611360565b6105ae565b60405190151581526020015b60405180910390f35b6100956100cd36600461139d565b6108eb565b6001546100e5906001600160a01b031681565b6040516001600160a01b0390911681526020016100b6565b61011061010b366004611360565b610b86565b6040516100b697969594939291906114ee565b610110610131366004611360565b610e77565b6001546001600160a01b0316331461018a5760405162461bcd60e51b815260206004820152601260248201527113db9b1e481bdddb995c88185b1b1bddd95960721b60448201526064015b60405180910390fd5b6000808260405161019b919061156b565b90815260200160405180910390206040518060e00160405290816000820180546101c490611587565b80601f01602080910402602001604051908101604052809291908181526020018280546101f090611587565b801561023d5780601f106102125761010080835404028352916020019161023d565b820191906000526020600020905b81548152906001019060200180831161022057829003601f168201915b5050505050815260200160018201805461025690611587565b80601f016020809104026020016040519081016040528092919081815260200182805461028290611587565b80156102cf5780601f106102a4576101008083540402835291602001916102cf565b820191906000526020600020905b8154815290600101906020018083116102b257829003601f168201915b505050505081526020016002820180546102e890611587565b80601f016020809104026020016040519081016040528092919081815260200182805461031490611587565b80156103615780601f1061033657610100808354040283529160200191610361565b820191906000526020600020905b81548152906001019060200180831161034457829003601f168201915b5050505050815260200160038201805461037a90611587565b80601f01602080910402602001604051908101604052809291908181526020018280546103a690611587565b80156103f35780601f106103c8576101008083540402835291602001916103f3565b820191906000526020600020905b8154815290600101906020018083116103d657829003601f168201915b5050505050815260200160048201805461040c90611587565b80601f016020809104026020016040519081016040528092919081815260200182805461043890611587565b80156104855780601f1061045a57610100808354040283529160200191610485565b820191906000526020600020905b81548152906001019060200180831161046857829003601f168201915b50505091835250506005820154602082015260069091015460ff1615156040909101528051519091506000036104f55760405162461bcd60e51b815260206004820152601560248201527410d95c9d1a599a58d85d19481b9bdd08199bdd5b99605a1b6044820152606401610181565b8060c00151156105395760405162461bcd60e51b815260206004820152600f60248201526e105b1c9958591e481c995d9bdad959608a1b6044820152606401610181565b600160008360405161054b919061156b565b908152604051908190036020018120600601805492151560ff199093169290921790915561057a90839061156b565b604051908190038120907f266095b5af7e2323760fef151f1d78896740cd2cc1b73a6357ff9e4c3fdae74090600090a25050565b6000806000836040516105c1919061156b565b90815260200160405180910390206040518060e00160405290816000820180546105ea90611587565b80601f016020809104026020016040519081016040528092919081815260200182805461061690611587565b80156106635780601f1061063857610100808354040283529160200191610663565b820191906000526020600020905b81548152906001019060200180831161064657829003601f168201915b5050505050815260200160018201805461067c90611587565b80601f01602080910402602001604051908101604052809291908181526020018280546106a890611587565b80156106f55780601f106106ca576101008083540402835291602001916106f5565b820191906000526020600020905b8154815290600101906020018083116106d857829003601f168201915b5050505050815260200160028201805461070e90611587565b80601f016020809104026020016040519081016040528092919081815260200182805461073a90611587565b80156107875780601f1061075c57610100808354040283529160200191610787565b820191906000526020600020905b81548152906001019060200180831161076a57829003601f168201915b505050505081526020016003820180546107a090611587565b80601f01602080910402602001604051908101604052809291908181526020018280546107cc90611587565b80156108195780601f106107ee57610100808354040283529160200191610819565b820191906000526020600020905b8154815290600101906020018083116107fc57829003601f168201915b5050505050815260200160048201805461083290611587565b80601f016020809104026020016040519081016040528092919081815260200182805461085e90611587565b80156108ab5780601f10610880576101008083540402835291602001916108ab565b820191906000526020600020905b81548152906001019060200180831161088e57829003601f168201915b50505091835250506005820154602082015260069091015460ff161515604090910152805151909150158015906108e457508060c00151155b9392505050565b6001546001600160a01b0316331461093a5760405162461bcd60e51b815260206004820152601260248201527113db9b1e481bdddb995c88185b1b1bddd95960721b6044820152606401610181565b60008660405161094a919061156b565b9081526020016040518091039020600401805461096690611587565b1590506109aa5760405162461bcd60e51b815260206004820152601260248201527143657274696669636174652065786973747360701b6044820152606401610181565b60008651116109e65760405162461bcd60e51b8152602060048201526008602482015267115b5c1d1e48125160c21b6044820152606401610181565b6000815111610a295760405162461bcd60e51b815260206004820152600f60248201526e08adae0e8f24092a08ca640d0c2e6d608b1b6044820152606401610181565b6040518060e0016040528086815260200185815260200184815260200183815260200182815260200142815260200160001515815250600087604051610a6f919061156b565b90815260200160405180910390206000820151816000019080519060200190610a99929190611224565b506020828101518051610ab29260018501920190611224565b5060408201518051610ace916002840191602090910190611224565b5060608201518051610aea916003840191602090910190611224565b5060808201518051610b06916004840191602090910190611224565b5060a0820151600582015560c0909101516006909101805460ff1916911515919091179055604051610b3990879061156b565b60405180910390207fa1cb59ea4d0bdca83e3ed2fec89d139973086c6e5bc7d586debaa1a8db2c7df286868442604051610b7694939291906115c1565b60405180910390a2505050505050565b8051602081830181018051600082529282019190930120915280548190610bac90611587565b80601f0160208091040260200160405190810160405280929190818152602001828054610bd890611587565b8015610c255780601f10610bfa57610100808354040283529160200191610c25565b820191906000526020600020905b815481529060010190602001808311610c0857829003601f168201915b505050505090806001018054610c3a90611587565b80601f0160208091040260200160405190810160405280929190818152602001828054610c6690611587565b8015610cb35780601f10610c8857610100808354040283529160200191610cb3565b820191906000526020600020905b815481529060010190602001808311610c9657829003601f168201915b505050505090806002018054610cc890611587565b80601f0160208091040260200160405190810160405280929190818152602001828054610cf490611587565b8015610d415780601f10610d1657610100808354040283529160200191610d41565b820191906000526020600020905b815481529060010190602001808311610d2457829003601f168201915b505050505090806003018054610d5690611587565b80601f0160208091040260200160405190810160405280929190818152602001828054610d8290611587565b8015610dcf5780601f10610da457610100808354040283529160200191610dcf565b820191906000526020600020905b815481529060010190602001808311610db257829003601f168201915b505050505090806004018054610de490611587565b80601f0160208091040260200160405190810160405280929190818152602001828054610e1090611587565b8015610e5d5780601f10610e3257610100808354040283529160200191610e5d565b820191906000526020600020905b815481529060010190602001808311610e4057829003601f168201915b50505050600583015460069093015491929160ff16905087565b606080606080606060008060008089604051610e93919061156b565b90815260200160405180910390206040518060e0016040529081600082018054610ebc90611587565b80601f0160208091040260200160405190810160405280929190818152602001828054610ee890611587565b8015610f355780601f10610f0a57610100808354040283529160200191610f35565b820191906000526020600020905b815481529060010190602001808311610f1857829003601f168201915b50505050508152602001600182018054610f4e90611587565b80601f0160208091040260200160405190810160405280929190818152602001828054610f7a90611587565b8015610fc75780601f10610f9c57610100808354040283529160200191610fc7565b820191906000526020600020905b815481529060010190602001808311610faa57829003601f168201915b50505050508152602001600282018054610fe090611587565b80601f016020809104026020016040519081016040528092919081815260200182805461100c90611587565b80156110595780601f1061102e57610100808354040283529160200191611059565b820191906000526020600020905b81548152906001019060200180831161103c57829003601f168201915b5050505050815260200160038201805461107290611587565b80601f016020809104026020016040519081016040528092919081815260200182805461109e90611587565b80156110eb5780601f106110c0576101008083540402835291602001916110eb565b820191906000526020600020905b8154815290600101906020018083116110ce57829003601f168201915b5050505050815260200160048201805461110490611587565b80601f016020809104026020016040519081016040528092919081815260200182805461113090611587565b801561117d5780601f106111525761010080835404028352916020019161117d565b820191906000526020600020905b81548152906001019060200180831161116057829003601f168201915b50505091835250506005820154602082015260069091015460ff1615156040909101528051519091506000036111ed5760405162461bcd60e51b815260206004820152601560248201527410d95c9d1a599a58d85d19481b9bdd08199bdd5b99605a1b6044820152606401610181565b8051602082015160408301516060840151608085015160a086015160c090960151949e939d50919b50995097509195509350915050565b82805461123090611587565b90600052602060002090601f0160209004810192826112525760008555611298565b82601f1061126b57805160ff1916838001178555611298565b82800160010185558215611298579182015b8281111561129857825182559160200191906001019061127d565b506112a49291506112a8565b5090565b5b808211156112a457600081556001016112a9565b634e487b7160e01b600052604160045260246000fd5b600082601f8301126112e457600080fd5b813567ffffffffffffffff808211156112ff576112ff6112bd565b604051601f8301601f19908116603f01168101908282118183101715611327576113276112bd565b8160405283815286602085880101111561134057600080fd5b836020870160208301376000602085830101528094505050505092915050565b60006020828403121561137257600080fd5b813567ffffffffffffffff81111561138957600080fd5b611395848285016112d3565b949350505050565b60008060008060008060c087890312156113b657600080fd5b863567ffffffffffffffff808211156113ce57600080fd5b6113da8a838b016112d3565b975060208901359150808211156113f057600080fd5b6113fc8a838b016112d3565b9650604089013591508082111561141257600080fd5b61141e8a838b016112d3565b9550606089013591508082111561143457600080fd5b6114408a838b016112d3565b9450608089013591508082111561145657600080fd5b6114628a838b016112d3565b935060a089013591508082111561147857600080fd5b5061148589828a016112d3565b9150509295509295509295565b60005b838110156114ad578181015183820152602001611495565b838111156114bc576000848401525b50505050565b600081518084526114da816020860160208601611492565b601f01601f19169290920160200192915050565b60e08152600061150160e083018a6114c2565b8281036020840152611513818a6114c2565b9050828103604084015261152781896114c2565b9050828103606084015261153b81886114c2565b9050828103608084015261154f81876114c2565b60a0840195909552505090151560c09091015295945050505050565b6000825161157d818460208701611492565b9190910192915050565b600181811c9082168061159b57607f821691505b6020821081036115bb57634e487b7160e01b600052602260045260246000fd5b50919050565b6080815260006115d460808301876114c2565b82810360208401526115e681876114c2565b905082810360408401526115fa81866114c2565b9150508260608301529594505050505056fea2646970667358221220370fd93a882267f1c071b28a260bf2b04c85602f770719584db988fd1329277064736f6c634300080d0033",
  "immutableReferences": {},
  "source": "// SPDX-License-Identifier: MIT\npragma solidity ^0.8.13;\n\ncontract Certification {\n    struct Certificate {\n        string uid;\n        string candidateName;\n        string courseName;\n        string orgName;\n        string ipfsHash;\n        uint256 timestamp;\n        bool revoked; // Added revoked status to struct\n    }\n\n    mapping(string => Certificate) public certificates;\n    address public owner;\n    \n    event CertificateGenerated(\n        string indexed certificateId,\n        string uid,\n        string candidateName,\n        string ipfsHash,\n        uint256 timestamp\n    );\n    \n    event CertificateRevoked(string indexed certificateId);\n\n    constructor() {\n        owner = msg.sender;\n    }\n\n    modifier onlyOwner() {\n        require(msg.sender == owner, \"Only owner allowed\");\n        _;\n    }\n\n    function generateCertificate(\n        string memory certificateId,\n        string memory uid,\n        string memory candidateName,\n        string memory courseName,\n        string memory orgName,\n        string memory ipfsHash\n    ) public onlyOwner {\n        require(\n            bytes(certificates[certificateId].ipfsHash).length == 0,\n            \"Certificate exists\"\n        );\n        require(bytes(certificateId).length > 0, \"Empty ID\");\n        require(bytes(ipfsHash).length > 0, \"Empty IPFS hash\");\n\n        certificates[certificateId] = Certificate({\n            uid: uid,\n            candidateName: candidateName,\n            courseName: courseName,\n            orgName: orgName,\n            ipfsHash: ipfsHash,\n            timestamp: block.timestamp,\n            revoked: false // Initialize revoked status\n        });\n\n        emit CertificateGenerated(certificateId, uid, candidateName, ipfsHash, block.timestamp);\n    }\n\n    function getCertificate(string memory certificateId)\n        public\n        view\n        returns (\n            string memory uid,\n            string memory candidateName,\n            string memory courseName,\n            string memory orgName,\n            string memory ipfsHash,\n            uint256 timestamp,\n            bool revoked\n        )\n    {\n        Certificate memory c = certificates[certificateId];\n        require(bytes(c.uid).length != 0, \"Certificate not found\"); // Changed check to uid\n        // require(\n        //     bytes(certificates[certificateId].ipfsHash).length != 0,\n        //     \"Certificate not found\"\n        // );\n        return (\n            c.uid,\n            c.candidateName,\n            c.courseName,\n            c.orgName,\n            c.ipfsHash,\n            c.timestamp,\n            c.revoked\n        );\n    }\n\n    function isVerified(string memory certificateId) public view returns (bool) {\n        Certificate memory c = certificates[certificateId];\n        return bytes(c.uid).length != 0 && !c.revoked; \n        // Changed check to uid\n    }\n\n    function revokeCertificate(string memory certificateId) public onlyOwner {\n        Certificate memory c = certificates[certificateId];\n        require(bytes(c.uid).length != 0, \"Certificate not found\"); // Changed check to uid\n        require(!c.revoked, \"Already revoked\");\n        \n        certificates[certificateId].revoked = true;\n        emit CertificateRevoked(certificateId);\n    }\n\n    function storeCertificate(\n        string memory certificateId,\n        string memory uid,\n        string memory candidateName,\n        string memory courseName,\n        string memory orgName,\n        string memory ipfsHash\n    ) public onlyOwner {\n        require(\n            bytes(certificates[certificateId].ipfsHash).length == 0,\n            \"Certificate exists\"\n        );\n        require(bytes(certificateId).length > 0, \"Empty ID\");\n        require(bytes(ipfsHash).length > 0, \"Empty IPFS hash\");\n\n        certificates[certificateId] = Certificate({\n            uid: uid,\n            candidateName: candidateName,\n            courseName: courseName,\n            orgName: orgName,\n            ipfsHash: ipfsHash,\n            timestamp: block.timestamp,\n            revoked: false\n        });\n\n        emit CertificateGenerated(certificateId, uid, candidateName, ipfsHash, block.timestamp);\n    }\n}",
  "sourcePath": "/app/contracts/Certification.sol",
  "compiler": {
    "name": "solc",
    "version": "0.8.13+commit.abaa5c0e.Emscripten.clang"
  },
  "schemaVersion": "3.4.16",
  "updatedAt": "2025-04-11T06:47:34.040Z",
  "networkType": "ethereum",
  "devdoc": {
    "kind": "dev",
    "methods": {},
    "version": 1
  },
  "userdoc": {
    "kind": "user",
    "methods": {},
    "version": 1
  }
}