{
  "contractName": "Certification",
  "abi": [
    {
      "inputs": [],
      "stateMutability": "nonpayable",
      "type": "constructor"
    },
    {
      "anonymous": false,
      "inputs": [
        {
          "indexed": true,
          "internalType": "string",
          "name": "certificateId",
          "type": "string"
        },
        {
          "indexed": false,
          "internalType": "string",
          "name": "uid",
          "type": "string"
        },
        {
          "indexed": false,
          "internalType": "string",
          "name": "candidateName",
          "type": "string"
        },
        {
          "indexed": false,
          "internalType": "string",
          "name": "ipfsHash",
          "type": "string"
        },
        {
          "indexed": false,
          "internalType": "uint256",
          "name": "timestamp",
          "type": "uint256"
        }
      ],
      "name": "CertificateGenerated",
      "type": "event"
    },
    {
      "anonymous": false,
      "inputs": [
        {
          "indexed": true,
          "internalType": "string",
          "name": "certificateId",
          "type": "string"
        }
      ],
      "name": "CertificateRevoked",
      "type": "event"
    },
    {
      "inputs": [
        {
          "internalType": "string",
          "name": "",
          "type": "string"
        }
      ],
      "name": "certificates",
      "outputs": [
        {
          "internalType": "string",
          "name": "uid",
          "type": "string"
        },
        {
          "internalType": "string",
          "name": "candidateName",
          "type": "string"
        },
        {
          "internalType": "string",
          "name": "courseName",
          "type": "string"
        },
        {
          "internalType": "string",
          "name": "orgName",
          "type": "string"
        },
        {
          "internalType": "string",
          "name": "ipfsHash",
          "type": "string"
        },
        {
          "internalType": "uint256",
          "name": "timestamp",
          "type": "uint256"
        },
        {
          "internalType": "bool",
          "name": "revoked",
          "type": "bool"
        }
      ],
      "stateMutability": "view",
      "type": "function",
      "constant": true
    },
    {
      "inputs": [],
      "name": "owner",
      "outputs": [
        {
          "internalType": "address",
          "name": "",
          "type": "address"
        }
      ],
      "stateMutability": "view",
      "type": "function",
      "constant": true
    },
    {
      "inputs": [
        {
          "internalType": "string",
          "name": "certificateId",
          "type": "string"
        },
        {
          "internalType": "string",
          "name": "uid",
          "type": "string"
        },
        {
          "internalType": "string",
          "name": "candidateName",
          "type": "string"
        },
        {
          "internalType": "string",
          "name": "courseName",
          "type": "string"
        },
        {
          "internalType": "string",
          "name": "orgName",
          "type": "string"
        },
        {
          "internalType": "string",
          "name": "ipfsHash",
          "type": "string"
        }
      ],
      "name": "generateCertificate",
      "outputs": [],
      "stateMutability": "nonpayable",
      "type": "function"
    },
    {
      "inputs": [
        {
          "internalType": "string",
          "name": "certificateId",
          "type": "string"
        }
      ],
      "name": "getCertificate",
      "outputs": [
        {
          "internalType": "string",
          "name": "uid",
          "type": "string"
        },
        {
          "internalType": "string",
          "name": "candidateName",
          "type": "string"
        },
        {
          "internalType": "string",
          "name": "courseName",
          "type": "string"
        },
        {
          "internalType": "string",
          "name": "orgName",
          "type": "string"
        },
        {
          "internalType": "string",
          "name": "ipfsHash",
          "type": "string"
        },
        {
          "internalType": "uint256",
          "name": "timestamp",
          "type": "uint256"
        },
        {
          "internalType": "bool",
          "name": "revoked",
          "type": "bool"
        }
      ],
      "stateMutability": "view",
      "type": "function",
      "constant": true
    },
    {
      "inputs": [
        {
          "internalType": "string",
          "name": "certificateId",
          "type": "string"
        }
      ],
      "name": "isVerified",
      "outputs": [
        {
          "internalType": "bool",
          "name": "",
          "type": "bool"
        }
      ],
      "stateMutability": "view",
      "type": "function",
      "constant": true
    },
    {
      "inputs": [
        {
          "internalType": "string",
          "name": "certificateId",
          "type": "string"
        }
      ],
      "name": "revokeCertificate",
      "outputs": [],
      "stateMutability": "nonpayable",
      "type": "function"
    }
  ],
  "bytecode": "0x608060405234801561001057600080fd5b50600180546001600160a01b03191633179055611627806100326000396000f3fe608060405234801561001057600080fd5b50600436106100625760003560e01c8063142e154214610067578063234c76d51461007c578063627956ae146100a45780638da5cb5b146100b75780638f2b91ea146100e2578063ed0f2e7514610108575b600080fd5b61007a610075366004611345565b61011b565b005b61008f61008a366004611345565b610593565b60405190151581526020015b60405180910390f35b61007a6100b2366004611382565b6108d0565b6001546100ca906001600160a01b031681565b6040516001600160a01b03909116815260200161009b565b6100f56100f0366004611345565b610b6b565b60405161009b97969594939291906114d3565b6100f5610116366004611345565b610e5c565b6001546001600160a01b0316331461016f5760405162461bcd60e51b815260206004820152601260248201527113db9b1e481bdddb995c88185b1b1bddd95960721b60448201526064015b60405180910390fd5b600080826040516101809190611550565b90815260200160405180910390206040518060e00160405290816000820180546101a99061156c565b80601f01602080910402602001604051908101604052809291908181526020018280546101d59061156c565b80156102225780601f106101f757610100808354040283529160200191610222565b820191906000526020600020905b81548152906001019060200180831161020557829003601f168201915b5050505050815260200160018201805461023b9061156c565b80601f01602080910402602001604051908101604052809291908181526020018280546102679061156c565b80156102b45780601f10610289576101008083540402835291602001916102b4565b820191906000526020600020905b81548152906001019060200180831161029757829003601f168201915b505050505081526020016002820180546102cd9061156c565b80601f01602080910402602001604051908101604052809291908181526020018280546102f99061156c565b80156103465780601f1061031b57610100808354040283529160200191610346565b820191906000526020600020905b81548152906001019060200180831161032957829003601f168201915b5050505050815260200160038201805461035f9061156c565b80601f016020809104026020016040519081016040528092919081815260200182805461038b9061156c565b80156103d85780601f106103ad576101008083540402835291602001916103d8565b820191906000526020600020905b8154815290600101906020018083116103bb57829003601f168201915b505050505081526020016004820180546103f19061156c565b80601f016020809104026020016040519081016040528092919081815260200182805461041d9061156c565b801561046a5780601f1061043f5761010080835404028352916020019161046a565b820191906000526020600020905b81548152906001019060200180831161044d57829003601f168201915b50505091835250506005820154602082015260069091015460ff1615156040909101528051519091506000036104da5760405162461bcd60e51b815260206004820152601560248201527410d95c9d1a599a58d85d19481b9bdd08199bdd5b99605a1b6044820152606401610166565b8060c001511561051e5760405162461bcd60e51b815260206004820152600f60248201526e105b1c9958591e481c995d9bdad959608a1b6044820152606401610166565b60016000836040516105309190611550565b908152604051908190036020018120600601805492151560ff199093169290921790915561055f908390611550565b604051908190038120907f266095b5af7e2323760fef151f1d78896740cd2cc1b73a6357ff9e4c3fdae74090600090a25050565b6000806000836040516105a69190611550565b90815260200160405180910390206040518060e00160405290816000820180546105cf9061156c565b80601f01602080910402602001604051908101604052809291908181526020018280546105fb9061156c565b80156106485780601f1061061d57610100808354040283529160200191610648565b820191906000526020600020905b81548152906001019060200180831161062b57829003601f168201915b505050505081526020016001820180546106619061156c565b80601f016020809104026020016040519081016040528092919081815260200182805461068d9061156c565b80156106da5780601f106106af576101008083540402835291602001916106da565b820191906000526020600020905b8154815290600101906020018083116106bd57829003601f168201915b505050505081526020016002820180546106f39061156c565b80601f016020809104026020016040519081016040528092919081815260200182805461071f9061156c565b801561076c5780601f106107415761010080835404028352916020019161076c565b820191906000526020600020905b81548152906001019060200180831161074f57829003601f168201915b505050505081526020016003820180546107859061156c565b80601f01602080910402602001604051908101604052809291908181526020018280546107b19061156c565b80156107fe5780601f106107d3576101008083540402835291602001916107fe565b820191906000526020600020905b8154815290600101906020018083116107e157829003601f168201915b505050505081526020016004820180546108179061156c565b80601f01602080910402602001604051908101604052809291908181526020018280546108439061156c565b80156108905780601f1061086557610100808354040283529160200191610890565b820191906000526020600020905b81548152906001019060200180831161087357829003601f168201915b50505091835250506005820154602082015260069091015460ff161515604090910152805151909150158015906108c957508060c00151155b9392505050565b6001546001600160a01b0316331461091f5760405162461bcd60e51b815260206004820152601260248201527113db9b1e481bdddb995c88185b1b1bddd95960721b6044820152606401610166565b60008660405161092f9190611550565b9081526020016040518091039020600401805461094b9061156c565b15905061098f5760405162461bcd60e51b815260206004820152601260248201527143657274696669636174652065786973747360701b6044820152606401610166565b60008651116109cb5760405162461bcd60e51b8152602060048201526008602482015267115b5c1d1e48125160c21b6044820152606401610166565b6000815111610a0e5760405162461bcd60e51b815260206004820152600f60248201526e08adae0e8f24092a08ca640d0c2e6d608b1b6044820152606401610166565b6040518060e0016040528086815260200185815260200184815260200183815260200182815260200142815260200160001515815250600087604051610a549190611550565b90815260200160405180910390206000820151816000019080519060200190610a7e929190611209565b506020828101518051610a979260018501920190611209565b5060408201518051610ab3916002840191602090910190611209565b5060608201518051610acf916003840191602090910190611209565b5060808201518051610aeb916004840191602090910190611209565b5060a0820151600582015560c0909101516006909101805460ff1916911515919091179055604051610b1e908790611550565b60405180910390207fa1cb59ea4d0bdca83e3ed2fec89d139973086c6e5bc7d586debaa1a8db2c7df286868442604051610b5b94939291906115a6565b60405180910390a2505050505050565b8051602081830181018051600082529282019190930120915280548190610b919061156c565b80601f0160208091040260200160405190810160405280929190818152602001828054610bbd9061156c565b8015610c0a5780601f10610bdf57610100808354040283529160200191610c0a565b820191906000526020600020905b815481529060010190602001808311610bed57829003601f168201915b505050505090806001018054610c1f9061156c565b80601f0160208091040260200160405190810160405280929190818152602001828054610c4b9061156c565b8015610c985780601f10610c6d57610100808354040283529160200191610c98565b820191906000526020600020905b815481529060010190602001808311610c7b57829003601f168201915b505050505090806002018054610cad9061156c565b80601f0160208091040260200160405190810160405280929190818152602001828054610cd99061156c565b8015610d265780601f10610cfb57610100808354040283529160200191610d26565b820191906000526020600020905b815481529060010190602001808311610d0957829003601f168201915b505050505090806003018054610d3b9061156c565b80601f0160208091040260200160405190810160405280929190818152602001828054610d679061156c565b8015610db45780601f10610d8957610100808354040283529160200191610db4565b820191906000526020600020905b815481529060010190602001808311610d9757829003601f168201915b505050505090806004018054610dc99061156c565b80601f0160208091040260200160405190810160405280929190818152602001828054610df59061156c565b8015610e425780601f10610e1757610100808354040283529160200191610e42565b820191906000526020600020905b815481529060010190602001808311610e2557829003601f168201915b50505050600583015460069093015491929160ff16905087565b606080606080606060008060008089604051610e789190611550565b90815260200160405180910390206040518060e0016040529081600082018054610ea19061156c565b80601f0160208091040260200160405190810160405280929190818152602001828054610ecd9061156c565b8015610f1a5780601f10610eef57610100808354040283529160200191610f1a565b820191906000526020600020905b815481529060010190602001808311610efd57829003601f168201915b50505050508152602001600182018054610f339061156c565b80601f0160208091040260200160405190810160405280929190818152602001828054610f5f9061156c565b8015610fac5780601f10610f8157610100808354040283529160200191610fac565b820191906000526020600020905b815481529060010190602001808311610f8f57829003601f168201915b50505050508152602001600282018054610fc59061156c565b80601f0160208091040260200160405190810160405280929190818152602001828054610ff19061156c565b801561103e5780601f106110135761010080835404028352916020019161103e565b820191906000526020600020905b81548152906001019060200180831161102157829003601f168201915b505050505081526020016003820180546110579061156c565b80601f01602080910402602001604051908101604052809291908181526020018280546110839061156c565b80156110d05780601f106110a5576101008083540402835291602001916110d0565b820191906000526020600020905b8154815290600101906020018083116110b357829003601f168201915b505050505081526020016004820180546110e99061156c565b80601f01602080910402602001604051908101604052809291908181526020018280546111159061156c565b80156111625780601f1061113757610100808354040283529160200191611162565b820191906000526020600020905b81548152906001019060200180831161114557829003601f168201915b50505091835250506005820154602082015260069091015460ff1615156040909101528051519091506000036111d25760405162461bcd60e51b815260206004820152601560248201527410d95c9d1a599a58d85d19481b9bdd08199bdd5b99605a1b6044820152606401610166565b8051602082015160408301516060840151608085015160a086015160c090960151949e939d50919b50995097509195509350915050565b8280546112159061156c565b90600052602060002090601f016020900481019282611237576000855561127d565b82601f1061125057805160ff191683800117855561127d565b8280016001018555821561127d579182015b8281111561127d578251825591602001919060010190611262565b5061128992915061128d565b5090565b5b80821115611289576000815560010161128e565b634e487b7160e01b600052604160045260246000fd5b600082601f8301126112c957600080fd5b813567ffffffffffffffff808211156112e4576112e46112a2565b604051601f8301601f19908116603f0116810190828211818310171561130c5761130c6112a2565b8160405283815286602085880101111561132557600080fd5b836020870160208301376000602085830101528094505050505092915050565b60006020828403121561135757600080fd5b813567ffffffffffffffff81111561136e57600080fd5b61137a848285016112b8565b949350505050565b60008060008060008060c0878903121561139b57600080fd5b863567ffffffffffffffff808211156113b357600080fd5b6113bf8a838b016112b8565b975060208901359150808211156113d557600080fd5b6113e18a838b016112b8565b965060408901359150808211156113f757600080fd5b6114038a838b016112b8565b9550606089013591508082111561141957600080fd5b6114258a838b016112b8565b9450608089013591508082111561143b57600080fd5b6114478a838b016112b8565b935060a089013591508082111561145d57600080fd5b5061146a89828a016112b8565b9150509295509295509295565b60005b8381101561149257818101518382015260200161147a565b838111156114a1576000848401525b50505050565b600081518084526114bf816020860160208601611477565b601f01601f19169290920160200192915050565b60e0815260006114e660e083018a6114a7565b82810360208401526114f8818a6114a7565b9050828103604084015261150c81896114a7565b9050828103606084015261152081886114a7565b9050828103608084015261153481876114a7565b60a0840195909552505090151560c09091015295945050505050565b60008251611562818460208701611477565b9190910192915050565b600181811c9082168061158057607f821691505b6020821081036115a057634e487b7160e01b600052602260045260246000fd5b50919050565b6080815260006115b960808301876114a7565b82810360208401526115cb81876114a7565b905082810360408401526115df81866114a7565b9150508260608301529594505050505056fea2646970667358221220bd97a5fc125855fec72222696179d5f665334b30e1842d869cd81d7f5685955064736f6c634300080d0033",
  "immutableReferences": {},
  "source": "// SPDX-License-Identifier: MIT\npragma solidity ^0.8.13;\n\ncontract Certification {\n    struct Certificate {\n        string uid;\n        string candidateName;\n        string courseName;\n        string orgName;\n        string ipfsHash;\n        uint256 timestamp;\n        bool revoked; // Added revoked status to struct\n    }\n\n    mapping(string => Certificate) public certificates;\n    address public owner;\n    \n    event CertificateGenerated(\n        string indexed certificateId,\n        string uid,\n        string candidateName,\n        string ipfsHash,\n        uint256 timestamp\n    );\n    \n    event CertificateRevoked(string indexed certificateId);\n\n    constructor() {\n        owner = msg.sender;\n    }\n\n    modifier onlyOwner() {\n        require(msg.sender == owner, \"Only owner allowed\");\n        _;\n    }\n\n    function generateCertificate(\n        string memory certificateId,\n        string memory uid,\n        string memory candidateName,\n        string memory courseName,\n        string memory orgName,\n        string memory ipfsHash\n    ) public onlyOwner {\n        require(\n            bytes(certificates[certificateId].ipfsHash).length == 0,\n            \"Certificate exists\"\n        );\n        require(bytes(certificateId).length > 0, \"Empty ID\");\n        require(bytes(ipfsHash).length > 0, \"Empty IPFS hash\");\n\n        certificates[certificateId] = Certificate({\n            uid: uid,\n            candidateName: candidateName,\n            courseName: courseName,\n            orgName: orgName,\n            ipfsHash: ipfsHash,\n            timestamp: block.timestamp,\n            revoked: false // Initialize revoked status\n        });\n\n        emit CertificateGenerated(certificateId, uid, candidateName, ipfsHash, block.timestamp);\n    }\n\n    function getCertificate(string memory certificateId)\n        public\n        view\n        returns (\n            string memory uid,\n            string memory candidateName,\n            string memory courseName,\n            string memory orgName,\n            string memory ipfsHash,\n            uint256 timestamp,\n            bool revoked\n        )\n    {\n        Certificate memory c = certificates[certificateId];\n        require(bytes(c.uid).length != 0, \"Certificate not found\"); // Changed check to uid\n        // require(\n        //     bytes(certificates[certificateId].ipfsHash).length != 0,\n        //     \"Certificate not found\"\n        // );\n        return (\n            c.uid,\n            c.candidateName,\n            c.courseName,\n            c.orgName,\n            c.ipfsHash,\n            c.timestamp,\n            c.revoked\n        );\n    }\n\n    function isVerified(string memory certificateId) public view returns (bool) {\n        Certificate memory c = certificates[certificateId];\n        return bytes(c.uid).length != 0 && !c.revoked; \n        // Changed check to uid\n    }\n\n    function revokeCertificate(string memory certificateId) public onlyOwner {\n        Certificate memory c = certificates[certificateId];\n        require(bytes(c.uid).length != 0, \"Certificate not found\"); // Changed check to uid\n        require(!c.revoked, \"Already revoked\");\n        \n        certificates[certificateId].revoked = true;\n        emit CertificateRevoked(certificateId);\n    }\n}",
  "sourcePath": "/app/contracts/Certification.sol",
  "compiler": {
    "name": "solc",
    "version": "0.8.13+commit.abaa5c0e.Emscripten.clang"
  },
  "schemaVersion": "3.4.16",
  "updatedAt": "2025-03-29T07:12:20.417Z",
  "networkType": "ethereum",
  "devdoc": {
    "kind": "dev",
    "methods": {},
    "version": 1
  },
  "userdoc": {
    "kind": "user",
    "methods": {},
    "version": 1
  }
}