{
  "contractName": "Certification",
  "abi": [
    {
      "inputs": [],
      "stateMutability": "nonpayable",
      "type": "constructor"
    },
    {
      "anonymous": false,
      "inputs": [
        {
          "indexed": true,
          "internalType": "string",
          "name": "certificateId",
          "type": "string"
        },
        {
          "indexed": false,
          "internalType": "string",
          "name": "referenceId",
          "type": "string"
        },
        {
          "indexed": false,
          "internalType": "string",
          "name": "candidateName",
          "type": "string"
        },
        {
          "indexed": false,
          "internalType": "string",
          "name": "ipfsHash",
          "type": "string"
        },
        {
          "indexed": false,
          "internalType": "uint256",
          "name": "timestamp",
          "type": "uint256"
        }
      ],
      "name": "CertificateGenerated",
      "type": "event"
    },
    {
      "anonymous": false,
      "inputs": [
        {
          "indexed": true,
          "internalType": "string",
          "name": "certificateId",
          "type": "string"
        }
      ],
      "name": "CertificateRevoked",
      "type": "event"
    },
    {
      "inputs": [
        {
          "internalType": "string",
          "name": "",
          "type": "string"
        }
      ],
      "name": "certificates",
      "outputs": [
        {
          "internalType": "string",
          "name": "referenceId",
          "type": "string"
        },
        {
          "internalType": "string",
          "name": "candidateName",
          "type": "string"
        },
        {
          "internalType": "string",
          "name": "courseName",
          "type": "string"
        },
        {
          "internalType": "string",
          "name": "institutionName",
          "type": "string"
        },
        {
          "internalType": "string",
          "name": "issuedDate",
          "type": "string"
        },
        {
          "internalType": "string",
          "name": "institutionLogo",
          "type": "string"
        },
        {
          "internalType": "string",
          "name": "generationDate",
          "type": "string"
        },
        {
          "internalType": "string",
          "name": "blockchainTxId",
          "type": "string"
        },
        {
          "internalType": "string",
          "name": "cryptographicSignature",
          "type": "string"
        },
        {
          "internalType": "string",
          "name": "ipfsHash",
          "type": "string"
        },
        {
          "internalType": "uint256",
          "name": "timestamp",
          "type": "uint256"
        },
        {
          "internalType": "bool",
          "name": "revoked",
          "type": "bool"
        }
      ],
      "stateMutability": "view",
      "type": "function",
      "constant": true
    },
    {
      "inputs": [],
      "name": "owner",
      "outputs": [
        {
          "internalType": "address",
          "name": "",
          "type": "address"
        }
      ],
      "stateMutability": "view",
      "type": "function",
      "constant": true
    },
    {
      "inputs": [
        {
          "internalType": "string",
          "name": "certificateId",
          "type": "string"
        },
        {
          "internalType": "string",
          "name": "referenceId",
          "type": "string"
        },
        {
          "internalType": "string",
          "name": "candidateName",
          "type": "string"
        },
        {
          "internalType": "string",
          "name": "courseName",
          "type": "string"
        },
        {
          "internalType": "string",
          "name": "institutionName",
          "type": "string"
        },
        {
          "internalType": "string",
          "name": "issuedDate",
          "type": "string"
        },
        {
          "internalType": "string",
          "name": "institutionLogo",
          "type": "string"
        },
        {
          "internalType": "string",
          "name": "generationDate",
          "type": "string"
        },
        {
          "internalType": "string",
          "name": "blockchainTxId",
          "type": "string"
        },
        {
          "internalType": "string",
          "name": "cryptographicSignature",
          "type": "string"
        },
        {
          "internalType": "string",
          "name": "ipfsHash",
          "type": "string"
        }
      ],
      "name": "generateCertificate",
      "outputs": [],
      "stateMutability": "nonpayable",
      "type": "function"
    },
    {
      "inputs": [
        {
          "internalType": "string",
          "name": "certificateId",
          "type": "string"
        }
      ],
      "name": "getCertificate",
      "outputs": [
        {
          "internalType": "string",
          "name": "referenceId",
          "type": "string"
        },
        {
          "internalType": "string",
          "name": "candidateName",
          "type": "string"
        },
        {
          "internalType": "string",
          "name": "courseName",
          "type": "string"
        },
        {
          "internalType": "string",
          "name": "institutionName",
          "type": "string"
        },
        {
          "internalType": "string",
          "name": "issuedDate",
          "type": "string"
        },
        {
          "internalType": "string",
          "name": "institutionLogo",
          "type": "string"
        },
        {
          "internalType": "string",
          "name": "generationDate",
          "type": "string"
        },
        {
          "internalType": "string",
          "name": "blockchainTxId",
          "type": "string"
        },
        {
          "internalType": "string",
          "name": "cryptographicSignature",
          "type": "string"
        },
        {
          "internalType": "string",
          "name": "ipfsHash",
          "type": "string"
        },
        {
          "internalType": "uint256",
          "name": "timestamp",
          "type": "uint256"
        },
        {
          "internalType": "bool",
          "name": "revoked",
          "type": "bool"
        }
      ],
      "stateMutability": "view",
      "type": "function",
      "constant": true
    },
    {
      "inputs": [
        {
          "internalType": "string",
          "name": "certificateId",
          "type": "string"
        }
      ],
      "name": "isVerified",
      "outputs": [
        {
          "internalType": "bool",
          "name": "",
          "type": "bool"
        }
      ],
      "stateMutability": "view",
      "type": "function",
      "constant": true
    },
    {
      "inputs": [
        {
          "internalType": "string",
          "name": "certificateId",
          "type": "string"
        }
      ],
      "name": "revokeCertificate",
      "outputs": [],
      "stateMutability": "nonpayable",
      "type": "function"
    }
  ],
  "bytecode": "0x608060405234801561001057600080fd5b50600180546001600160a01b031916331790556123af806100326000396000f3fe608060405234801561001057600080fd5b50600436106100625760003560e01c806311a3ec8614610067578063142e15421461007c578063234c76d51461008f5780638da5cb5b146100b75780638f2b91ea146100e2578063ed0f2e751461010d575b600080fd5b61007a610075366004611f8f565b610120565b005b61007a61008a36600461214c565b610474565b6100a261009d36600461214c565b610bc3565b60405190151581526020015b60405180910390f35b6001546100ca906001600160a01b031681565b6040516001600160a01b0390911681526020016100ae565b6100f56100f036600461214c565b6111dc565b6040516100ae9c9b9a999897969594939291906121e5565b6100f561011b36600461214c565b611793565b6001546001600160a01b031633146101745760405162461bcd60e51b815260206004820152601260248201527113db9b1e481bdddb995c88185b1b1bddd95960721b60448201526064015b60405180910390fd5b60008b60405161018491906122d8565b908152602001604051809103902060090180546101a0906122f4565b1590506101e45760405162461bcd60e51b815260206004820152601260248201527143657274696669636174652065786973747360701b604482015260640161016b565b60008b51116102205760405162461bcd60e51b8152602060048201526008602482015267115b5c1d1e48125160c21b604482015260640161016b565b60008151116102635760405162461bcd60e51b815260206004820152600f60248201526e08adae0e8f24092a08ca640d0c2e6d608b1b604482015260640161016b565b6040518061018001604052808b81526020018a81526020018981526020018881526020018781526020018681526020018581526020018481526020018381526020018281526020014281526020016000151581525060008c6040516102c891906122d8565b908152602001604051809103902060008201518160000190805190602001906102f2929190611e53565b50602082810151805161030b9260018501920190611e53565b5060408201518051610327916002840191602090910190611e53565b5060608201518051610343916003840191602090910190611e53565b506080820151805161035f916004840191602090910190611e53565b5060a0820151805161037b916005840191602090910190611e53565b5060c08201518051610397916006840191602090910190611e53565b5060e082015180516103b3916007840191602090910190611e53565b5061010082015180516103d0916008840191602090910190611e53565b5061012082015180516103ed916009840191602090910190611e53565b50610140820151600a82015561016090910151600b909101805460ff1916911515919091179055604051610422908c906122d8565b60405180910390207fa1cb59ea4d0bdca83e3ed2fec89d139973086c6e5bc7d586debaa1a8db2c7df28b8b844260405161045f949392919061232e565b60405180910390a25050505050505050505050565b6001546001600160a01b031633146104c35760405162461bcd60e51b815260206004820152601260248201527113db9b1e481bdddb995c88185b1b1bddd95960721b604482015260640161016b565b600080826040516104d491906122d8565b9081526020016040518091039020604051806101800160405290816000820180546104fe906122f4565b80601f016020809104026020016040519081016040528092919081815260200182805461052a906122f4565b80156105775780601f1061054c57610100808354040283529160200191610577565b820191906000526020600020905b81548152906001019060200180831161055a57829003601f168201915b50505050508152602001600182018054610590906122f4565b80601f01602080910402602001604051908101604052809291908181526020018280546105bc906122f4565b80156106095780601f106105de57610100808354040283529160200191610609565b820191906000526020600020905b8154815290600101906020018083116105ec57829003601f168201915b50505050508152602001600282018054610622906122f4565b80601f016020809104026020016040519081016040528092919081815260200182805461064e906122f4565b801561069b5780601f106106705761010080835404028352916020019161069b565b820191906000526020600020905b81548152906001019060200180831161067e57829003601f168201915b505050505081526020016003820180546106b4906122f4565b80601f01602080910402602001604051908101604052809291908181526020018280546106e0906122f4565b801561072d5780601f106107025761010080835404028352916020019161072d565b820191906000526020600020905b81548152906001019060200180831161071057829003601f168201915b50505050508152602001600482018054610746906122f4565b80601f0160208091040260200160405190810160405280929190818152602001828054610772906122f4565b80156107bf5780601f10610794576101008083540402835291602001916107bf565b820191906000526020600020905b8154815290600101906020018083116107a257829003601f168201915b505050505081526020016005820180546107d8906122f4565b80601f0160208091040260200160405190810160405280929190818152602001828054610804906122f4565b80156108515780601f1061082657610100808354040283529160200191610851565b820191906000526020600020905b81548152906001019060200180831161083457829003601f168201915b5050505050815260200160068201805461086a906122f4565b80601f0160208091040260200160405190810160405280929190818152602001828054610896906122f4565b80156108e35780601f106108b8576101008083540402835291602001916108e3565b820191906000526020600020905b8154815290600101906020018083116108c657829003601f168201915b505050505081526020016007820180546108fc906122f4565b80601f0160208091040260200160405190810160405280929190818152602001828054610928906122f4565b80156109755780601f1061094a57610100808354040283529160200191610975565b820191906000526020600020905b81548152906001019060200180831161095857829003601f168201915b5050505050815260200160088201805461098e906122f4565b80601f01602080910402602001604051908101604052809291908181526020018280546109ba906122f4565b8015610a075780601f106109dc57610100808354040283529160200191610a07565b820191906000526020600020905b8154815290600101906020018083116109ea57829003601f168201915b50505050508152602001600982018054610a20906122f4565b80601f0160208091040260200160405190810160405280929190818152602001828054610a4c906122f4565b8015610a995780601f10610a6e57610100808354040283529160200191610a99565b820191906000526020600020905b815481529060010190602001808311610a7c57829003601f168201915b5050509183525050600a8201546020820152600b9091015460ff161515604090910152805151909150600003610b095760405162461bcd60e51b815260206004820152601560248201527410d95c9d1a599a58d85d19481b9bdd08199bdd5b99605a1b604482015260640161016b565b80610160015115610b4e5760405162461bcd60e51b815260206004820152600f60248201526e105b1c9958591e481c995d9bdad959608a1b604482015260640161016b565b6001600083604051610b6091906122d8565b908152604051908190036020018120600b01805492151560ff1990931692909217909155610b8f9083906122d8565b604051908190038120907f266095b5af7e2323760fef151f1d78896740cd2cc1b73a6357ff9e4c3fdae74090600090a25050565b600080600083604051610bd691906122d8565b908152602001604051809103902060405180610180016040529081600082018054610c00906122f4565b80601f0160208091040260200160405190810160405280929190818152602001828054610c2c906122f4565b8015610c795780601f10610c4e57610100808354040283529160200191610c79565b820191906000526020600020905b815481529060010190602001808311610c5c57829003601f168201915b50505050508152602001600182018054610c92906122f4565b80601f0160208091040260200160405190810160405280929190818152602001828054610cbe906122f4565b8015610d0b5780601f10610ce057610100808354040283529160200191610d0b565b820191906000526020600020905b815481529060010190602001808311610cee57829003601f168201915b50505050508152602001600282018054610d24906122f4565b80601f0160208091040260200160405190810160405280929190818152602001828054610d50906122f4565b8015610d9d5780601f10610d7257610100808354040283529160200191610d9d565b820191906000526020600020905b815481529060010190602001808311610d8057829003601f168201915b50505050508152602001600382018054610db6906122f4565b80601f0160208091040260200160405190810160405280929190818152602001828054610de2906122f4565b8015610e2f5780601f10610e0457610100808354040283529160200191610e2f565b820191906000526020600020905b815481529060010190602001808311610e1257829003601f168201915b50505050508152602001600482018054610e48906122f4565b80601f0160208091040260200160405190810160405280929190818152602001828054610e74906122f4565b8015610ec15780601f10610e9657610100808354040283529160200191610ec1565b820191906000526020600020905b815481529060010190602001808311610ea457829003601f168201915b50505050508152602001600582018054610eda906122f4565b80601f0160208091040260200160405190810160405280929190818152602001828054610f06906122f4565b8015610f535780601f10610f2857610100808354040283529160200191610f53565b820191906000526020600020905b815481529060010190602001808311610f3657829003601f168201915b50505050508152602001600682018054610f6c906122f4565b80601f0160208091040260200160405190810160405280929190818152602001828054610f98906122f4565b8015610fe55780601f10610fba57610100808354040283529160200191610fe5565b820191906000526020600020905b815481529060010190602001808311610fc857829003601f168201915b50505050508152602001600782018054610ffe906122f4565b80601f016020809104026020016040519081016040528092919081815260200182805461102a906122f4565b80156110775780601f1061104c57610100808354040283529160200191611077565b820191906000526020600020905b81548152906001019060200180831161105a57829003601f168201915b50505050508152602001600882018054611090906122f4565b80601f01602080910402602001604051908101604052809291908181526020018280546110bc906122f4565b80156111095780601f106110de57610100808354040283529160200191611109565b820191906000526020600020905b8154815290600101906020018083116110ec57829003601f168201915b50505050508152602001600982018054611122906122f4565b80601f016020809104026020016040519081016040528092919081815260200182805461114e906122f4565b801561119b5780601f106111705761010080835404028352916020019161119b565b820191906000526020600020905b81548152906001019060200180831161117e57829003601f168201915b5050509183525050600a8201546020820152600b9091015460ff161515604090910152805151909150158015906111d55750806101600151155b9392505050565b8051602081830181018051600082529282019190930120915280548190611202906122f4565b80601f016020809104026020016040519081016040528092919081815260200182805461122e906122f4565b801561127b5780601f106112505761010080835404028352916020019161127b565b820191906000526020600020905b81548152906001019060200180831161125e57829003601f168201915b505050505090806001018054611290906122f4565b80601f01602080910402602001604051908101604052809291908181526020018280546112bc906122f4565b80156113095780601f106112de57610100808354040283529160200191611309565b820191906000526020600020905b8154815290600101906020018083116112ec57829003601f168201915b50505050509080600201805461131e906122f4565b80601f016020809104026020016040519081016040528092919081815260200182805461134a906122f4565b80156113975780601f1061136c57610100808354040283529160200191611397565b820191906000526020600020905b81548152906001019060200180831161137a57829003601f168201915b5050505050908060030180546113ac906122f4565b80601f01602080910402602001604051908101604052809291908181526020018280546113d8906122f4565b80156114255780601f106113fa57610100808354040283529160200191611425565b820191906000526020600020905b81548152906001019060200180831161140857829003601f168201915b50505050509080600401805461143a906122f4565b80601f0160208091040260200160405190810160405280929190818152602001828054611466906122f4565b80156114b35780601f10611488576101008083540402835291602001916114b3565b820191906000526020600020905b81548152906001019060200180831161149657829003601f168201915b5050505050908060050180546114c8906122f4565b80601f01602080910402602001604051908101604052809291908181526020018280546114f4906122f4565b80156115415780601f1061151657610100808354040283529160200191611541565b820191906000526020600020905b81548152906001019060200180831161152457829003601f168201915b505050505090806006018054611556906122f4565b80601f0160208091040260200160405190810160405280929190818152602001828054611582906122f4565b80156115cf5780601f106115a4576101008083540402835291602001916115cf565b820191906000526020600020905b8154815290600101906020018083116115b257829003601f168201915b5050505050908060070180546115e4906122f4565b80601f0160208091040260200160405190810160405280929190818152602001828054611610906122f4565b801561165d5780601f106116325761010080835404028352916020019161165d565b820191906000526020600020905b81548152906001019060200180831161164057829003601f168201915b505050505090806008018054611672906122f4565b80601f016020809104026020016040519081016040528092919081815260200182805461169e906122f4565b80156116eb5780601f106116c0576101008083540402835291602001916116eb565b820191906000526020600020905b8154815290600101906020018083116116ce57829003601f168201915b505050505090806009018054611700906122f4565b80601f016020809104026020016040519081016040528092919081815260200182805461172c906122f4565b80156117795780601f1061174e57610100808354040283529160200191611779565b820191906000526020600020905b81548152906001019060200180831161175c57829003601f168201915b50505050600a830154600b9093015491929160ff1690508c565b6060806060806060806060806060806000806000808e6040516117b691906122d8565b9081526020016040518091039020604051806101800160405290816000820180546117e0906122f4565b80601f016020809104026020016040519081016040528092919081815260200182805461180c906122f4565b80156118595780601f1061182e57610100808354040283529160200191611859565b820191906000526020600020905b81548152906001019060200180831161183c57829003601f168201915b50505050508152602001600182018054611872906122f4565b80601f016020809104026020016040519081016040528092919081815260200182805461189e906122f4565b80156118eb5780601f106118c0576101008083540402835291602001916118eb565b820191906000526020600020905b8154815290600101906020018083116118ce57829003601f168201915b50505050508152602001600282018054611904906122f4565b80601f0160208091040260200160405190810160405280929190818152602001828054611930906122f4565b801561197d5780601f106119525761010080835404028352916020019161197d565b820191906000526020600020905b81548152906001019060200180831161196057829003601f168201915b50505050508152602001600382018054611996906122f4565b80601f01602080910402602001604051908101604052809291908181526020018280546119c2906122f4565b8015611a0f5780601f106119e457610100808354040283529160200191611a0f565b820191906000526020600020905b8154815290600101906020018083116119f257829003601f168201915b50505050508152602001600482018054611a28906122f4565b80601f0160208091040260200160405190810160405280929190818152602001828054611a54906122f4565b8015611aa15780601f10611a7657610100808354040283529160200191611aa1565b820191906000526020600020905b815481529060010190602001808311611a8457829003601f168201915b50505050508152602001600582018054611aba906122f4565b80601f0160208091040260200160405190810160405280929190818152602001828054611ae6906122f4565b8015611b335780601f10611b0857610100808354040283529160200191611b33565b820191906000526020600020905b815481529060010190602001808311611b1657829003601f168201915b50505050508152602001600682018054611b4c906122f4565b80601f0160208091040260200160405190810160405280929190818152602001828054611b78906122f4565b8015611bc55780601f10611b9a57610100808354040283529160200191611bc5565b820191906000526020600020905b815481529060010190602001808311611ba857829003601f168201915b50505050508152602001600782018054611bde906122f4565b80601f0160208091040260200160405190810160405280929190818152602001828054611c0a906122f4565b8015611c575780601f10611c2c57610100808354040283529160200191611c57565b820191906000526020600020905b815481529060010190602001808311611c3a57829003601f168201915b50505050508152602001600882018054611c70906122f4565b80601f0160208091040260200160405190810160405280929190818152602001828054611c9c906122f4565b8015611ce95780601f10611cbe57610100808354040283529160200191611ce9565b820191906000526020600020905b815481529060010190602001808311611ccc57829003601f168201915b50505050508152602001600982018054611d02906122f4565b80601f0160208091040260200160405190810160405280929190818152602001828054611d2e906122f4565b8015611d7b5780601f10611d5057610100808354040283529160200191611d7b565b820191906000526020600020905b815481529060010190602001808311611d5e57829003601f168201915b5050509183525050600a8201546020820152600b9091015460ff161515604090910152805151909150600003611deb5760405162461bcd60e51b815260206004820152601560248201527410d95c9d1a599a58d85d19481b9bdd08199bdd5b99605a1b604482015260640161016b565b806000015181602001518260400151836060015184608001518560a001518660c001518760e001518861010001518961012001518a61014001518b61016001519c509c509c509c509c509c509c509c509c509c509c509c505091939597999b5091939597999b565b828054611e5f906122f4565b90600052602060002090601f016020900481019282611e815760008555611ec7565b82601f10611e9a57805160ff1916838001178555611ec7565b82800160010185558215611ec7579182015b82811115611ec7578251825591602001919060010190611eac565b50611ed3929150611ed7565b5090565b5b80821115611ed35760008155600101611ed8565b634e487b7160e01b600052604160045260246000fd5b600082601f830112611f1357600080fd5b813567ffffffffffffffff80821115611f2e57611f2e611eec565b604051601f8301601f19908116603f01168101908282118183101715611f5657611f56611eec565b81604052838152866020858801011115611f6f57600080fd5b836020870160208301376000602085830101528094505050505092915050565b60008060008060008060008060008060006101608c8e031215611fb157600080fd5b67ffffffffffffffff808d351115611fc857600080fd5b611fd58e8e358f01611f02565b9b508060208e01351115611fe857600080fd5b611ff88e60208f01358f01611f02565b9a508060408e0135111561200b57600080fd5b61201b8e60408f01358f01611f02565b99508060608e0135111561202e57600080fd5b61203e8e60608f01358f01611f02565b98508060808e0135111561205157600080fd5b6120618e60808f01358f01611f02565b97508060a08e0135111561207457600080fd5b6120848e60a08f01358f01611f02565b96508060c08e0135111561209757600080fd5b6120a78e60c08f01358f01611f02565b95508060e08e013511156120ba57600080fd5b6120ca8e60e08f01358f01611f02565b9450806101008e013511156120de57600080fd5b6120ef8e6101008f01358f01611f02565b9350806101208e0135111561210357600080fd5b6121148e6101208f01358f01611f02565b9250806101408e0135111561212857600080fd5b5061213a8d6101408e01358e01611f02565b90509295989b509295989b9093969950565b60006020828403121561215e57600080fd5b813567ffffffffffffffff81111561217557600080fd5b61218184828501611f02565b949350505050565b60005b838110156121a457818101518382015260200161218c565b838111156121b3576000848401525b50505050565b600081518084526121d1816020860160208601612189565b601f01601f19169290920160200192915050565b610180815260006121fa61018083018f6121b9565b828103602084015261220c818f6121b9565b90508281036040840152612220818e6121b9565b90508281036060840152612234818d6121b9565b90508281036080840152612248818c6121b9565b905082810360a084015261225c818b6121b9565b905082810360c0840152612270818a6121b9565b905082810360e084015261228481896121b9565b905082810361010084015261229981886121b9565b90508281036101208401526122ae81876121b9565b915050836101408301526122c761016083018415159052565b9d9c50505050505050505050505050565b600082516122ea818460208701612189565b9190910192915050565b600181811c9082168061230857607f821691505b60208210810361232857634e487b7160e01b600052602260045260246000fd5b50919050565b60808152600061234160808301876121b9565b828103602084015261235381876121b9565b9050828103604084015261236781866121b9565b9150508260608301529594505050505056fea26469706673582212206f0c08f6cbee40ce4daeda5e18f7de4a714c1e9b61e38016a902c2bd78934be964736f6c634300080d0033",
  "immutableReferences": {},
  "source": "// SPDX-License-Identifier: MIT\npragma solidity ^0.8.13;\n\ncontract Certification {\n    struct Certificate {\n        string referenceId;\n        string candidateName;\n        string courseName;\n        string institutionName;\n        string issuedDate;\n        string institutionLogo;\n        string generationDate;\n        string blockchainTxId;\n        string cryptographicSignature;\n        string ipfsHash;\n        uint256 timestamp;\n        bool revoked;\n    }\n\n    mapping(string => Certificate) public certificates;\n    address public owner;\n    \n    event CertificateGenerated(\n        string indexed certificateId,\n        string referenceId,\n        string candidateName,\n        string ipfsHash,\n        uint256 timestamp\n    );\n    \n    event CertificateRevoked(string indexed certificateId);\n\n    constructor() {\n        owner = msg.sender;\n    }\n\n    modifier onlyOwner() {\n        require(msg.sender == owner, \"Only owner allowed\");\n        _;\n    }\n\n    function generateCertificate(\n        string memory certificateId,\n        string memory referenceId,\n        string memory candidateName,\n        string memory courseName,\n        string memory institutionName,\n        string memory issuedDate,\n        string memory institutionLogo,\n        string memory generationDate,\n        string memory blockchainTxId,\n        string memory cryptographicSignature,\n        string memory ipfsHash\n    ) public onlyOwner {\n        require(\n            bytes(certificates[certificateId].ipfsHash).length == 0,\n            \"Certificate exists\"\n        );\n        require(bytes(certificateId).length > 0, \"Empty ID\");\n        require(bytes(ipfsHash).length > 0, \"Empty IPFS hash\");\n\n        certificates[certificateId] = Certificate({\n            referenceId: referenceId,\n            candidateName: candidateName,\n            courseName: courseName,\n            institutionName: institutionName,\n            issuedDate: issuedDate,\n            institutionLogo: institutionLogo,\n            generationDate: generationDate,\n            blockchainTxId: blockchainTxId,\n            cryptographicSignature: cryptographicSignature,\n            ipfsHash: ipfsHash,\n            timestamp: block.timestamp,\n            revoked: false\n        });\n\n        emit CertificateGenerated(certificateId, referenceId, candidateName, ipfsHash, block.timestamp);\n    }\n\n    function getCertificate(string memory certificateId)\n        public\n        view\n        returns (\n            string memory referenceId,\n            string memory candidateName,\n            string memory courseName,\n            string memory institutionName,\n            string memory issuedDate,\n            string memory institutionLogo,\n            string memory generationDate,\n            string memory blockchainTxId,\n            string memory cryptographicSignature,\n            string memory ipfsHash,\n            uint256 timestamp,\n            bool revoked\n        )\n    {\n        Certificate memory c = certificates[certificateId];\n        require(bytes(c.referenceId).length != 0, \"Certificate not found\");\n        return (\n            c.referenceId,\n            c.candidateName,\n            c.courseName,\n            c.institutionName,\n            c.issuedDate,\n            c.institutionLogo,\n            c.generationDate,\n            c.blockchainTxId,\n            c.cryptographicSignature,\n            c.ipfsHash,\n            c.timestamp,\n            c.revoked\n        );\n    }\n\n    function isVerified(string memory certificateId) public view returns (bool) {\n        Certificate memory c = certificates[certificateId];\n        return bytes(c.referenceId).length != 0 && !c.revoked; \n    }\n\n    function revokeCertificate(string memory certificateId) public onlyOwner {\n        Certificate memory c = certificates[certificateId];\n        require(bytes(c.referenceId).length != 0, \"Certificate not found\");\n        require(!c.revoked, \"Already revoked\");\n        \n        certificates[certificateId].revoked = true;\n        emit CertificateRevoked(certificateId);\n    }\n}",
  "sourcePath": "/app/contracts/Certification.sol",
  "compiler": {
    "name": "solc",
    "version": "0.8.13+commit.abaa5c0e.Emscripten.clang"
  },
  "schemaVersion": "3.4.16",
  "updatedAt": "2025-04-26T18:18:19.421Z",
  "networkType": "ethereum",
  "devdoc": {
    "kind": "dev",
    "methods": {},
    "version": 1
  },
  "userdoc": {
    "kind": "user",
    "methods": {},
    "version": 1
  }
}